:020000040000FA
:06000000FFEF01F0120009
:020006001200E6
:060008001FEF00F01200E2
:0600180016EF00F01200DB
:02001E000100DF
:0C0020001A040000B00000001F000000E7
:04002C00DACFE4FF44
:10003000E2CFDAFFE652E552E5CFDAFF1100DACF80
:10004000E4FFE2CFDAFFE9CFE4FFEACFE4FFE652D4
:10005000D9CFE6FFE1CFD9FFE652DF6A80B21BD0ED
:100060000001C12B000EC223CD51C219E8AE02D04F
:10007000C23504D0C151CC5DC251CD590BE2010E45
:10008000C06F300E896EBC6BBD6BBE6BBF6B010E5B
:10009000C16FC26B03D00001C16BC26B80B01CD0BA
:1000A000C52B000EC623CD51C619E8AE02D0C63509
:1000B00004D0C551CC5DC651CD590DE2010EC06FC3
:1000C000300E896EC75102E0000E01D0010EC76FDD
:1000D000010EC56FC66B02D0C56BC66BF2A455D0BE
:1000E000FE0ED76EC70ED66E000EE76EC019E8AED4
:1000F00002D0C03503D0E750D880C05501E2C02BF4
:10010000C0C000F0016A00BE0168CB510118E8AE22
:1001100002D0013404D00050CA5D0150CB5902E234
:10012000C06B806A8B6AB051020A15E0030A0EE0C8
:10013000010A07E0030A01E013D08F0E8A6EB06B4C
:100140000FD04F0E8A6E010EB06F0AD02F0E8A6E3E
:10015000020EB06F05D01F0E8A6E030EB06F00D076
:10016000B0C0E9FFEA6AE9BEEA68BC0EE926000E03
:10017000EA22EFCFE9FFEA6AE9BEEA68B10EE926B2
:10018000000EEA22EF508B6EF294F2A08BD0C36B7C
:10019000C46BD38E8050010B15E1C05113E1090EE1
:1001A000BF5D09E1090EBE5D06E1090EBD5D03E11B
:1001B000090EBC5D01E0BC2BC70502E1200E896E73
:1001C000010EC06F8050020B11E1C0510FE1BF5111
:1001D00006E1BE5104E1BD5102E1BC5101E0BC07A2
:1001E000C70502E1200E896E010EC06FDF6ADFCF06
:1001F00000F0040EE76E0018E8AE02D0E73402D03B
:10020000E750005C4EE2DFCFE9FFEA6AE9BEEA6848
:10021000BC0EE926000EEA22EFCF00F0090EE76ED1
:100220000018E8AE02D0003403D0E750D880005464
:1002300014E2DF28E96EEA6AE9BEEA68BC0EE92644
:10024000000EEA22EF2ADFCFE9FFEA6AE9BEEA6898
:10025000BC0EE926000EEA22EF6ADFCFE9FFEA6A68
:10026000E9BEEA68BC0EE926000EEA22EFCF00F0F4
:10027000003415E3DF28E96EEA6AE9BEEA68BC0EDD
:10028000E926000EEA22EF06DFCFE9FFEA6AE9BEBF
:10029000EA68BC0EE926000EEA22090EEF6EDF2A9C
:1002A000A6D7F2900001C32B000EC423C951C41974
:1002B000E8AE02D0C43504D0C351C85DC451C95999
:1002C00003E2D39E0F0E8A6EE552E552E7CFD9FFC7
:1002D000E552E5CFEAFFE5CFE9FFE5CFDAFF110010
:1002E0000001CE5108E109D80BD8936A946A000145
:1002F000010ECE6FD38E03001200960ED36E120045
:10030000CF0E926E806AF19EF180030E796EF286B6
:10031000D59CD59AD586FE0ED76EC70ED66ED58ED5
:10032000D08EF28CF28EF28AF28AF184F294D58E1B
:04033000F28E120037
:0C0334001E0EF66E000EF76E000EF86E46
:1003400000010900F550D46F0900F550D56F03E1A5
:10035000D46701D03DD00900F550CF6F0900F550AA
:10036000D06F0900F550D16F09000900F550E96E12
:100370000900F550EA6E090009000900F550D26F36
:100380000900F550D36F09000900F6CFD6F0F7CF7A
:10039000D7F0F8CFD8F0CFC0F6FFD0C0F7FFD1C06C
:1003A000F8FF0001D25302E1D35307E00900F550F2
:1003B000EE6ED207F8E2D307F9D7D6C0F6FFD7C062
:1003C000F7FFD8C0F8FF0001D407000ED55BBFD7F8
:0203D000120019
:0E03D200000EF36E00EE00F0010E07D8000ED4
:1003E000F36E02EE00F0030E01D81200EA6002D0B4
:0E03F000EE6AFCD7F350E9601200EE6AFCD70B
:0203FE0010EEFF
:1004000060F020EE60F0F86A039C9AEC01F003ECD7
:0A04100000F070EC01F0FBD71200C1
:06041A00003F065B4F6687
:100420006D7D077F6779000000000000000000007C
:0904300000016E280A00F401002D
:020000040030CA
:0100010008F6
:0100020039C4
:010003001EDE
:010006008178
:00000001FF
